:100000000C94B3000C94D0000C94D0000C94D0004D
:100010000C94D0000C94D0000C94D0000C94D00020
:100020000C94D0000C94D0000C94D0000C94D00010
:100030000C94D0000C94D0000C94D0000C94840547
:100040000C94D0000C94D0000C944F050C94D0006C
:100050000C94D0000C94D0000C94D0000C94D000E0
:100060000C9466070C94D0000C94AF0C0C94D00048
:100070000C94D0000C94D0000C94D00057045E0473
:1000800065048F048F048F048F048F048F046C0425
:100090006C046C046C046C046C046C046C046C04E0
:1000A0006C04750475047504750475047504750491
:1000B0007504750475047E047E047E047E047E044B
:1000C0007E048704870487048704630B730B830B08
:1000D000020C020C020C020C020C020C910B910B94
:1000E000910B910B910B910B910B910B910B910B30
:1000F000A30BA30BA30BA30BA30BA30BA30BA30B90
:10010000A30BA30BB50BB50BB50BB50BB50BB50B13
:10011000DD0BDD0BDD0BDD0B280C2D0C320C370C51
:100120003C0C480C4D0C520C5F0C640C640C640CC1
:10013000640C640C640C640C640C640C640C6C0C37
:100140006C0C6C0C6C0C6C0C6C0C6C0C6C0C6C0CEF
:100150006C0C740C740C740C740C740C740C7C0C9F
:100160007C0C7C0C7C0C11241FBECFEFD8E0DEBFD2
:10017000CDBF11E0A0E0B1E0E8EAFEE102C00590E9
:100180000D92A233B107D9F722E0A2E3B1E001C09A
:100190001D92A436B207E1F70E94D9080C94520FC1
:1001A0000C940000FC01128E138E108A1786118A9F
:1001B000128A138A148A168A108212821182148675
:1001C0001386178A108E158A14821682178210865B
:1001D000118612861382168615860895FC01A48D59
:1001E000B58D9C91868D809589238C93A78DB0A128
:1001F0009C9181A1809589238C930895FC01838132
:10020000811105C096818285891798F004C0968176
:100210008085891770F0A48DB58D9C91868D892B72
:100220008C93A78DB0A19C9181A1809589238C93FB
:100230000895CF010E94EE000895FC01A48DB58DB4
:100240009C91868D809589238C93A78DB0A19C91DC
:1002500081A1892B8C9381E0878B108E0895CF9399
:10026000DF93EC010E94EE001F8A188EDF91CF9180
:100270000895FC0181858823C1F091E0978B108E51
:100280009781981770F4A48DB58D9C91868D80957B
:1002900089238C93A78DB0A19C9181A1892B8C93EC
:1002A0000895CF010E94EE000895CF010E942F0112
:1002B00008954F925F926F927F928F929F92AF922A
:1002C000BF92CF92DF92EF92FF920F931F93CF9343
:1002D000DF93EC010D858E85801720F09F899111A9
:1002E00079C1C3C010E0081B11098F89882329F048
:1002F0000115110511F401E010E0898D811115C07F
:10030000CE010E942F012FEF89EF90E02150804015
:100310009040E1F700C0000081E08D8B8F8B188E3C
:100320001C861B868A8181111E8681E0898F8A80C6
:10033000882019F02AE030E002C02CE030E08C8107
:10034000882311F02CE030E070903D01729E500146
:10035000739EB00C112490903F01929EC001939E19
:10036000900D11249695879596958795809F6001AD
:10037000819FD00C909FD00C1124EB84FC848F853E
:100380009889E816F90681F020E030E040E85FE364
:1003900069897A898B899C890E944B0D698B7A8B3C
:1003A0008B8B9C8BF88AEF86B50180E090E00E94F1
:1003B0002E0E9B01AC0169897A898B899C890E94E8
:1003C000E00E88232CF091E0791418F490E001C03D
:1003D00090E09E8BCE14DF0488F08E85843008F088
:1003E00009C128812111FAC09111F8C0CE010E94E3
:1003F0001D0181E08D8B1F821D8237C08D8988236E
:1004000029F08E85843028F4080F0E878E8584307D
:1004100010F0811003C01D8A1C861B869D819111DE
:1004200013C08430F9F489858823E1F0CE010E945D
:10043000EE002FEF89EF90E0215080409040E1F7EF
:1004400000C0000081E08D83888181110BC08E8502
:10045000843041F48985882329F01D8ACE010E94C9
:10046000390103C0CE010E942F018D850E858017B2
:1004700020F0988D9111B6C0A4C010E0081B11099E
:10048000888D882329F00115110511F401E010E091
:10049000898D882391F0CE010E942F012FEF89EFE3
:1004A00090E0215080409040E1F700C0000081E0E2
:1004B0008D8B888F1F8A1C861B86198E8B818823C3
:1004C00041F0688570E084E690E00E94E50E6B01E3
:1004D00005C00F2EFAE0CF2ED12CF02DBD84B11027
:1004E00008C080913E018C9D40018D9D900C11248F
:1004F00012C020913F012C9DC0012D9D900D112413
:100500009695879596958795809F4001819F900C41
:10051000909F900C1124EB84FC848F859889E816B9
:10052000F906A9F149885A886B887C8820E030E078
:10053000A901C301B2010E94E00E1816BCF4B60175
:1005400080E090E00E942E0E9B01AC0160E070E024
:1005500080E291E40E94BC0D9B01AC01C301B20199
:100560000E944A0D698B7A8B8B8B9C8B20E030E04C
:10057000A90169897A898B899C890E94B70D882392
:1005800024F4198A1A8A1B8A1C8AF88AEF868E1428
:100590009F0448F08981811106C0CE010E94FE00AF
:1005A00081E08D8B0EC08D89882329F0BB20F1F06E
:1005B0008E85801B8E871D8A1C861B86CE010E941D
:1005C0002F018981882321F0198A1A8A1B8A1C8AA3
:1005D0008E8516C010E0081B11098ACE9D899923CB
:1005E00069F012CF10E0081B11094DCF1E86E3CF32
:1005F0008E850FCF8D898111FBCF08CF8E850BCFD4
:10060000DF91CF911F910F91FF90EF90DF90CF90EE
:10061000BF90AF909F908F907F906F905F904F9022
:1006200008950F931F93CF93DF938EE190E00E9484
:10063000320F80933F018FE19EE40197F1F700C0F4
:10064000000080913F019DEF980F923680F0893035
:1006500071F089E080933F0169E08EE190E00E94B3
:10066000440FCFE1DEE42197F1F700C0000080E203
:1006700090E00E94320F80933E018FE19EE401974B
:10068000F1F700C0000080913E019DEF980F923677
:1006900080F0843171F084E180933E0164E180E276
:1006A00090E00E94440FCFE1DEE42197F1F700C013
:1006B00000008FE190E00E94320F80933D018FE1B6
:1006C0009EE40197F1F700C0000080913D0185365E
:1006D00080F08A3071F08AE080933D016AE08FE11A
:1006E00090E00E94440FCFE1DEE42197F1F700C0D3
:1006F00000004AE050E064E170E089E891E00E9487
:10070000220F8FE19EE40197F1F700C00000E9E8B5
:10071000F1E0C8E2D1E023E931E0DE0190E041E020
:1007200080818150833618F08C918083942F31968C
:100730001196E217F307A1F7992371F04AE050E010
:1007400064E170E089E891E00E943A0F8FE19EE455
:100750000197F1F700C000004AE050E06AE070E065
:1007600085EA91E00E94220F8FE19EE40197F1F764
:1007700000C00000E5EAF1E02FEA31E090E041E05E
:1007800080818150833618F088818083942F319640
:100790002196E217F307A1F7992341F04AE050E0D0
:1007A0006AE070E085EA91E00E943A0F46E050E08E
:1007B00064E070E086E391E00E94220FCFE1DEE486
:1007C0002197F1F700C00000A6E3B1E0E0E1F1E01D
:1007D00048E251E060E071E08D018C919F019281CF
:1007E000981718F09181891728F4E9018881E801A8
:1007F0008883672F11963496E417F50769F7662307
:1008000071F046E050E064E070E086E391E00E9421
:100810003A0F8FE19EE40197F1F700C0000044E039
:1008200050E060E070E082E391E00E94220FCFE1AF
:10083000DEE42197F1F700C00000A2E3B1E0E0E0C0
:10084000F1E040E151E060E071E08D018C919F01A9
:100850009281981718F09181891728F4E90188810D
:10086000E8018883672F119634964E175F0769F762
:10087000662369F044E050E062E371E0CB010E943E
:100880003A0F8FE19EE40197F1F700C00000DF917D
:10089000CF911F910F910895F89490E0FC0131974A
:1008A000E732F105E0F5E25CFF4F0C94F90E609140
:1008B0003F018EE190E00E94440F31C060913E0103
:1008C00080E290E00E94440F2AC060913D018FE1D8
:1008D00090E00E94440F23C04AE050E064E170E0E1
:1008E00089E891E00E943A0F1AC04AE050E06AE0BD
:1008F00070E085EA91E00E943A0F11C046E050E0B6
:1009000064E070E086E391E00E943A0F08C044E0A2
:1009100050E060E070E082E391E00E943A0F78944A
:100920008FE19EE40197F1F700C000000895FC01FB
:100930001082A281B3819C9184818923A9F485814D
:100940009181891748F08781882319F081E0808799
:100950008287178281E003C08F5F858380E0918169
:100960009F3F59F4158209C08781811102C081E03F
:100970008187158281E0878380E09681911180E0F4
:1009800008950F931F93CF93DF938C01DC014D915A
:100990005C9111971D968C911D9790E0481759070F
:1009A00030F056968C9190E08417950728F4E80172
:1009B000188E1F8A1B8E58C081E0F801838FD801E2
:1009C00024E030E0BD011D968C911D9790E08417C6
:1009D0009507C8F41E968C911E9790E08417950792
:1009E00090F012968C911297E8019C85891718F067
:1009F000388F2F8B03C08F5FED018A839F3F29F4CF
:100A0000EB011A8202C0EB011A82215031091196C2
:100A10002F3FDFEF3D07B1F6D8014D915C9124E007
:100A200030E0DF01868990E048175907A0F48589F6
:100A300090E04817590778F08385E8019C8589176D
:100A400018F03A8F298F02C08F5F83879F3F29F468
:100A50001B961C9202C01B961C92215031093197A3
:100A60002F3FDFEF3D07E9F6DF91CF911F910F9107
:100A70000895FC018281882381F09081891750F4C8
:100A800083819181891718F081E0848304C08F5F8E
:100A9000838301C013828481089580E008951F92AA
:100AA0000F920FB60F9211248F9380913A028A30E1
:100AB00020F48F5F80933A0202C010923A02809134
:100AC00018028A3020F48F5F8093180202C01092BF
:100AD000180280913B02843120F48F5F80933B02A7
:100AE00002C010923B0280911902843120F48F5F82
:100AF0008093190202C01092190216BC8F910F90B8
:100B00000FBE0F901F9018951F920F920FB60F9265
:100B100011242F933F934F935F936F937F938F9302
:100B20009F93AF93BF93CF93DF93EF93FF93809106
:100B30004902882339F0E4E3F2E083859485019645
:100B40009487838780913F0290914002019621F41F
:100B50001092400210923F0280912702882339F0C0
:100B6000E2E1F2E083859485019694878387809102
:100B70001D0290911E02019621F410921E02109205
:100B80001D02909153019F5F909353018DEC989FAC
:100B9000812D112482958F70880F880F282F220FA6
:100BA000220F820F981305C010920D0281E08093EE
:100BB0000C02943638F081E080930D0210920C0202
:100BC0001092530181E092E00E9497048093010209
:100BD00086EF91E00E9497048093F6018BEE91E0FE
:100BE0000E9497048093EB0180EE91E00E949704AD
:100BF0008093E00185ED91E00E9497048093D501F8
:100C00008AEC91E00E9497048093CA018FEB91E0F7
:100C10000E9497048093BF0184EB91E00E949704A7
:100C20008093B4018091480190914901909399017A
:100C30008093980188E991E00E94C10480914A0163
:100C400090914B0190937D0180937C018CE791E022
:100C50000E94C104C7E7D1E0809146018883CE019C
:100C60000E943905809144018093720182E791E0EE
:100C70000E9439058C81811104C0809176018823FE
:100C800039F084E392E00E942F0181E08093070213
:100C9000CDE6D1E0809142018883CE010E943905E2
:100CA000809140018093680188E691E00E943905B7
:100CB0008C81811104C080916C01882339F082E11C
:100CC00092E00E942F0181E08093FC01E4E3F2E0D6
:100CD0008091EB0181838091E0018083E2E1F2E089
:100CE0008091D50181838091CA01808380913C01EC
:100CF0009FEF980F993018F48F5F80933C018BE33E
:100D000096EF9093850080938400FF91EF91DF919F
:100D1000CF91BF91AF919F918F917F916F915F9193
:100D20004F913F912F910F900FBE0F901F901895EC
:100D3000E1E0F2E01082168210861186128615829A
:100D400025E0218389E290E09383828330E8348335
:100D5000E6EFF1E010821086128611861682158267
:100D600021839383828321E02483EBEEF1E01082E0
:100D7000158222E021839383828330E23483E0EE84
:100D8000F1E01082158221839383828330E43483DF
:100D9000E5EDF1E010821582218393838283248321
:100DA000EAECF1E01082158221839383828334E0A0
:100DB0003483EFEBF1E01082158221831186938357
:100DC000828330E13483E4EBF1E0108211861582F6
:100DD00021839383828388E084830895A7E7B1E029
:100DE00014961C9214971C92E6E3F1E091811196FF
:100DF0009C93119713961C9213978081282F220F92
:100E0000220F820F12968C93A2E7B1E014961C92E7
:100E100014971C9211969C93119713961C921397FA
:100E200012968C93ADE6B1E014961C9214971C9226
:100E3000938111969C93119713961C92139782811C
:100E4000282F220F220F820F12968C93A8E6B1E072
:100E500014961C9214971C9211969C9311971396BA
:100E60001C92139712968C93A3E6B1E014961C92F1
:100E700014971C928481982F990F990F890F1296BD
:100E80008C93129713961C92AEE5B1E014961C92C7
:100E900014971C9212968C93129713961C92A9E5A4
:100EA000B1E014961C9214971C928581982F990F8B
:100EB000990F890F12968C93129713961C92E4E562
:100EC000F1E0148210828283138208951F920F92A0
:100ED0000FB60F9211242F933F934F935F936F930D
:100EE0007F938F939F93AF93BF93EF93FF93F89468
:100EF000ECE7F0E080819081907F90838F7082306A
:100F000009F469C028F4882361F08130B9F1ECC09C
:100F1000843009F4BAC008F48BC0853009F4CDC020
:100F2000E3C0809178009091790090934101809383
:100F300040018093540180911502811104C0809179
:100F40001B02882321F085E08093550102C0109296
:100F5000550184E591E00E9439058091580188236C
:100F600039F082E192E00E942F0181E08093FC0140
:100F7000ECE7F0E0808181608083BDC080917800E3
:100F8000909179009093430180934201809359019D
:100F900080911502811104C080911B02882321F0E9
:100FA00085E080935A0102C010925A0189E591E0D0
:100FB0000E94390580915D01882339F082E192E039
:100FC0000E942F0181E08093FC01ECE7F0E080813A
:100FD0008260808390C08091780090917900909396
:100FE000470180934601809363018091370281110C
:100FF00004C080913D02882321F085E08093640144
:1010000002C01092640183E691E00E94390580914C
:101010006701882339F084E392E00E942F0181E088
:1010200080930702ECE7F0E080818360808363C0F7
:1010300080917800909179009093450180934401CC
:1010400080935E0180913702811104C080913D023E
:10105000882321F085E080935F0102C010925F0138
:101060008EE591E00E94390580916201882339F074
:1010700084E392E00E942F0181E080930702ECE775
:10108000F0E080818460808336C0209178003091C8
:101090007900ADECBCEC0E94FF0E96958795969575
:1010A00087959695879590934B0180934A01ECE73D
:1010B000F0E08081856080831EC0209178003091AF
:1010C0007900ADECBCEC0E94FF0E96958795969545
:1010D0008795969587959093490180934801ECE711
:1010E000F0E08081808307C0ECE7F0E08081807FC2
:1010F0008083808180837894EAE7F0E08081806457
:101100008083FF91EF91BF91AF919F918F917F91DC
:101110006F915F914F913F912F910F900FBE0F9064
:101120001F901895ECE7F1E082E08487108E178A13
:10113000128E118E138EE8E9F1E08487108E178AE3
:10114000128E118E138EEAE7F0E080818D68808325
:1011500080E480937C0080818064808308951F9365
:10116000CF93DF93C4E3D2E082E290E09D8F8C8F37
:1011700020E42E8F98A38F8F80E889A3CE010E9450
:10118000D2001E821F82C2E1D2E085E290E09D8FF4
:101190008C8F14E01E8F98A38F8F88E089A3CE01D7
:1011A0000E94D2001E838AE08F83DF91CF911F912E
:1011B0000895CF93DF9300D0CDB7DEB780EC81B92F
:1011C0008DE084B9E0E6F0E08081886180838EE084
:1011D000808314BC82E085BD16BC1092800083E041
:1011E000809381008BE396EF909385008093840039
:1011F00078940E9411030E9498060E94AF080E94F2
:10120000EE060E9492080E948F0C81E085BB8093BD
:101210006E0086BB80936F0019820F2EF7E7AF2E0A
:10122000F1E0BF2EF02D0F2EF2E78F2EF1E09F2E72
:10123000F02D0F2EF3E64F2EF1E05F2EF02D01E0A2
:1012400012E00F2EF4E3EF2EF2E0FF2EF02D0F2E22
:10125000FDE6CF2EF1E0DF2EF02D0F2EF8E66F2EFB
:10126000F1E07F2EF02D0F2EF9E52F2EF1E03F2E2D
:10127000F02DA895D50114968C9181119CC0F40194
:101280008481811198C0D20114968C91811193C0F0
:101290008091620181118FC08091BD01882331F05E
:1012A0001092BD01B1E0B98391E001C090E0F80176
:1012B0008081882349F081E0D70112968C931297A0
:1012C00084E01D968C932DC0F7018281882349F01C
:1012D00015868685811125C0808D811122C01282DC
:1012E00020C080919701882319F08091930106C056
:1012F000E8E9F1E0818D238D222399F081110FC05F
:10130000D7011E962C911E97211109C058962C9139
:101310005897211104C057962C91222311F0F70100
:101320008587D80118968C911897882329F0F701A2
:10133000128E18961C9212C0D7015B968C915B9707
:1013400081110CC05A968C915A97882339F0E6EF98
:10135000F1E08081811102C05A961C92D7015A9601
:101360008C915A975B968C935B97EFEBF1E08081C1
:1013700013968C93A4EBB1E08C91F70184838823BE
:1013800021F081E0828384E08587992319F0D701D9
:101390001D961C92E2E3F1E08081D70119968C93AF
:1013A000199782811A968C931A97838118968C9339
:1013B000C7010E945901F6018481811186C0D301C1
:1013C00014968C91811181C0F101848181117DC0BD
:1013D00080915801811179C0A6EFB1E08C918823EA
:1013E00039F0E2E1F2E081E0828384E085872DC07C
:1013F00080911402882369F0E2E1F2E01586868587
:10140000811123C080912A0281111FC01092140201
:101410001CC08091B301882319F08091AF0106C0F0
:10142000ECE7F1E0818D938D992379F081110BC068
:1014300090912002911107C090912A02911103C04E
:1014400090912902911180931F028091FE018823BF
:1014500029F010922C021092FE010EC080912D02F4
:1014600081110AC080912C02882331F0F80180811B
:10147000811102C010922C02E2E1F2E0828D838F92
:10148000AFEBB1E08C918383A4EBB1E08C918483CA
:10149000882321F081E0828384E08587B981B111BE
:1014A00010921F02E2E1F2E0A2E3B1E011968C910A
:1014B0001197818712968C911297828713968C913F
:1014C0008087CF010E9459011982F8018285882303
:1014D00081F08681882369F0D50114961C92F2016F
:1014E0001482D40114961C9210926201F8011682A3
:1014F000128680910002882391F08091FC0188235C
:1015000071F0D60114961C92F1011482D301149645
:101510001C92109258011092FC0110920002D70107
:101520005896EC915897E0930F0257968C918093C0
:101530001102A2E1B2E058969C91589790930E0246
:1015400057962C91209310026091EB01362F330FA8
:10155000330F6091E001660F660F660F632B4E2F0D
:10156000482B462B3091D501B0E13B9FB0011124AF
:10157000642B3091CA01F0E23F9FA0011124462B59
:10158000D8013C91B0E43B9FB0011124642BA6EF3D
:10159000B1E03C91B0E83B9FA0011124462B392FCC
:1015A000322B330F432B40935201D50114964C91AB
:1015B000D40114965C91D60114967C91D3011496B3
:1015C0006C91880F880FEE0FEE0FEE0F8E2B83605D
:1015D000B0E12B9F90011124822BE0E29E9F9001AD
:1015E0001124282BE42FE52B80E4E89FF00111243F
:1015F0002E2B972F962BA0E89A9FF0011124E22B17
:10160000E0935101F2013481E0916201D10114961D
:10161000FC91B0915801BA83A4EBB1E08C91282FD2
:10162000220F220F220FAFEBB1E08C91880F880FB1
:10163000822B232F2E2B982F922B8A818F2B880F72
:10164000892B8093500131110FC0E1110DC0F111B0
:101650000BC0BA81B11108C0411106C0511104C0BC
:10166000711102C0662311F0289A01C02898809158
:101670000D02882309F4C8C085E08093610284E0EC
:10168000809360020E949E0C10920D028091620273
:101690008130E1F710923C01E6E5F2E08181809330
:1016A0004E01928190934D01838180934C01482F8C
:1016B00050E0FA013197E732F10508F0A3C0EB5989
:1016C000FF4F0C94F90E80913F01981709F49CC0CC
:1016D0008DEF890F823608F099E090933F0181E009
:1016E0000E944C0491C080913E01981709F48CC06F
:1016F0008DEF890F823608F094E190933E0182E0ED
:101700000E944C0481C080913D01981709F47CC06F
:10171000953608F09AE090933D0183E00E944C04D6
:1017200073C0282F30E02A503109F901E458FE4FE8
:101730004585941709F468C0F901E458FE4F958770
:101740000E944C0461C0282F30E024513109F90176
:10175000E856FE4F4585941709F456C0F901E8563E
:10176000FE4F95870E944C044FC0282F30E02E5129
:101770003109F901EA5CFE4F4081941709F444C035
:10178000F901EE0FFF1FEE0FFF1FE05FFE4F5281CA
:10179000541750F4F901EE0FFF1FEE0FFF1FE05F2B
:1017A000FE4F5181451780F1F901EA5CFE4F9083AD
:1017B0000E944C040E94EE0627C0282F30E02452DD
:1017C0003109F901EE5CFE4F40819417E9F0F9010F
:1017D000EE0FFF1FEE0FFF1FE050FF4F5281541717
:1017E00050F4F901EE0FFF1FEE0FFF1FE050FF4F07
:1017F0005181451748F0F901EE5CFE4F90830E943D
:101800004C0402C010924D0180910C02882309F40F
:1018100030CD81E08093610284E08093600280910A
:101820005201E6E5F2E0808380915101818380914D
:101830005001828320914E01822F90E0FC0131976C
:10184000E732F10508F060C0E457FF4F0C94F90E41
:1018500080913F0180934F0159C080913E01809358
:101860004F0154C080913D0180934F014FC0809142
:101870004A0180934F014AC0F7018585880F982F50
:10188000990F990F890F9685890F80934F013EC05C
:101890008091970180934F0139C0809148018093D6
:1018A0004F0134C0E2E1F2E08585880F982F990F4F
:1018B000990F890F9685890F80934F0127C08091DA
:1018C000B30180934F0122C0E22FF0E0E458FE4FB5
:1018D000838180934F011AC0E22FF0E0EF56FE4F54
:1018E000808180934F0112C0E22FF0E0E85EFE4F4E
:1018F000808180934F010AC0E22FF0E0E25FFE4F4B
:10190000808180934F0102C010924F0180914F015E
:10191000809359020E94A70C10920C02AACC81E07D
:101920008093620288E08093B8001092B9008FEF34
:101930008093BB0084E08093BC0008951092620203
:1019400081E080935F0285EA8093BC000895109245
:10195000620210925F0285EA8093BC0008951F9294
:101960000F920FB60F9211242F933F938F939F9353
:10197000EF93FF938091B900883229F148F48031C8
:1019800009F446C08831B9F0883009F072C00AC045
:10199000803509F444C0883509F45FC0803409F00B
:1019A00068C049C0109263028EEC8093BB0085E84A
:1019B0008093BC0064C0809161028093BB0085E885
:1019C0008093BC005CC080915F02813021F485EA85
:1019D0008093BC0054C0909163028091600298177C
:1019E00080F4E091630281E08E0F80936302F0E067
:1019F000EA5AFD4F80818093BB0085E88093BC004C
:101A00003EC084E98093BC0081E08093620237C0CD
:101A10008FEC8093BB0085E88093BC0030C0E091E0
:101A2000630281E08E0F80936302F0E08091BB003F
:101A3000EA5AFD4F80832091630230E0809160027A
:101A400090E001972817390724F485EC8093BC00B7
:101A500016C085E88093BC0012C0E091630281E06B
:101A60008E0F80936302F0E08091BB00EA5AFD4F35
:101A7000808384E98093BC0081E080936202FF91BF
:101A8000EF919F918F913F912F910F900FBE0F90EB
:101A90001F9018955058BB27AA270E94620D0C94DE
:101AA000A60E0E94980E38F00E949F0E20F039F486
:101AB0009F3F19F426F40C94950E0EF4E095E7FB85
:101AC0000C948F0EE92F0E94B70E58F3BA176207D5
:101AD00073078407950720F079F4A6F50C94D90EC6
:101AE0000EF4E0950B2EBA2FA02D0B01B901900139
:101AF0000C01CA01A0011124FF27591B99F0593F7D
:101B000050F4503E68F11A16F040A22F232F342FC4
:101B10004427585FF3CF469537952795A795F04012
:101B20005395C9F77EF41F16BA0B620B730B840B27
:101B3000BAF09150A1F0FF0FBB1F661F771F881FDF
:101B4000C2F70EC0BA0F621F731F841F48F4879537
:101B500077956795B795F7959E3F08F0B0CF939529
:101B6000880F08F09927EE0F9795879508950E94A2
:101B70006B0E08F481E008950E94D00D0C94A60E1F
:101B80000E949F0E58F00E94980E40F029F45F3F8B
:101B900029F00C948F0E51110C94DA0E0C94950EC2
:101BA0000E94B70E68F39923B1F3552391F3951B67
:101BB000550BBB27AA2762177307840738F09F5F6E
:101BC0005F4F220F331F441FAA1FA9F335D00E2EDB
:101BD0003AF0E0E832D091505040E695001CCAF748
:101BE0002BD0FE2F29D0660F771F881FBB1F26170B
:101BF00037074807AB07B0E809F0BB0B802DBF01E2
:101C0000FF2793585F4F3AF09E3F510578F00C94B0
:101C10008F0E0C94DA0E5F3FE4F3983ED4F3869572
:101C200077956795B795F7959F5FC9F7880F911DD1
:101C30009695879597F90895E1E0660F771F881FBD
:101C4000BB1F621773078407BA0720F0621B730B70
:101C5000840BBA0BEE1F88F7E0950895E89409C04D
:101C600097FB3EF490958095709561957F4F8F4FCF
:101C70009F4F9923A9F0F92F96E9BB279395F695E5
:101C8000879577956795B795F111F8CFFAF4BB0F63
:101C900011F460FF1BC06F5F7F4F8F4F9F4F16C0C7
:101CA000882311F096E911C0772321F09EE8872F51
:101CB000762F05C0662371F096E8862F70E060E00D
:101CC0002AF09A95660F771F881FDAF7880F969586
:101CD000879597F90895990F0008550FAA0BE0E82A
:101CE000FEEF16161706E807F907C0F012161306DE
:101CF000E407F50798F0621B730B840B950B39F41E
:101D00000A2661F0232B242B252B21F408950A2683
:101D100009F4A140A6958FEF811D811D089597F9C3
:101D20009F6780E870E060E008959FEF80EC089581
:101D300000240A94161617061806090608950024AA
:101D40000A9412161306140605060895092E039424
:101D5000000C11F4882352F0BB0F40F4BF2B11F498
:101D600060FF04C06F5F7F4F8F4F9F4F089557FDF7
:101D70009058440F551F59F05F3F71F04795880FF9
:101D800097FB991F61F09F3F79F087950895121690
:101D900013061406551FF2CF4695F1DF08C016163C
:101DA00017061806991FF1CF8695710561050894ED
:101DB0000895E894BB2766277727CB0197F9089504
:101DC0000E946B0E08F48FEF089597FB072E16F410
:101DD000009407D077FD09D00E940E0F07FC05D0B4
:101DE0003EF4909581959F4F0895709561957F4F32
:101DF0000895EE0FFF1F0590F491E02D0994A29F26
:101E0000B001B39FC001A39F700D811D1124911DCE
:101E1000B29F700D811D1124911D0895AA1BBB1B3B
:101E200051E107C0AA1FBB1FA617B70710F0A61BDA
:101E3000B70B881F991F5A95A9F780959095BC01FB
:101E4000CD010895DC01CB01FC01F999FECF06C05C
:101E5000F2BDE1BDF89A319600B40D924150504068
:101E6000B8F70895F999FECF92BD81BDF89A9927E8
:101E700080B50895DC01CB0103C02D910E94450F70
:101E800041505040D0F70895262FF999FECF1FBA40
:101E900092BD81BD20BD0FB6F894FA9AF99A0FBE93
:081EA00001960895F894FFCFAC
:101EA80000000A0000000A000A010A0004010A00F2
:101EB8000A0132000A0163020A0132000A016302C0
:101EC8001E0050001E0050000A191E23283D4247DC
:021ED8004C5A62
:00000001FF
